{
  "_format": "hh-sol-artifact-1",
  "contractName": "MagicOracleVRF",
  "sourceName": "src/contracts/MagicOracleVRF.sol",
  "abi": [
    {
      "inputs": [
        {
          "internalType": "uint64",
          "name": "subscriptionId",
          "type": "uint64"
        }
      ],
      "stateMutability": "nonpayable",
      "type": "constructor"
    },
    {
      "inputs": [
        {
          "internalType": "address",
          "name": "have",
          "type": "address"
        },
        {
          "internalType": "address",
          "name": "want",
          "type": "address"
        }
      ],
      "name": "OnlyCoordinatorCanFulfill",
      "type": "error"
    },
    {
      "anonymous": false,
      "inputs": [
        {
          "indexed": true,
          "internalType": "address",
          "name": "from",
          "type": "address"
        },
        {
          "indexed": true,
          "internalType": "address",
          "name": "to",
          "type": "address"
        }
      ],
      "name": "OwnershipTransferRequested",
      "type": "event"
    },
    {
      "anonymous": false,
      "inputs": [
        {
          "indexed": true,
          "internalType": "address",
          "name": "from",
          "type": "address"
        },
        {
          "indexed": true,
          "internalType": "address",
          "name": "to",
          "type": "address"
        }
      ],
      "name": "OwnershipTransferred",
      "type": "event"
    },
    {
      "anonymous": false,
      "inputs": [
        {
          "indexed": true,
          "internalType": "uint256",
          "name": "requestId",
          "type": "uint256"
        },
        {
          "indexed": false,
          "internalType": "uint256[]",
          "name": "randomWords",
          "type": "uint256[]"
        }
      ],
      "name": "RequestFulfilled",
      "type": "event"
    },
    {
      "inputs": [],
      "name": "acceptOwnership",
      "outputs": [],
      "stateMutability": "nonpayable",
      "type": "function"
    },
    {
      "inputs": [
        {
          "internalType": "uint256",
          "name": "_requestId",
          "type": "uint256"
        }
      ],
      "name": "getNumberResponse",
      "outputs": [
        {
          "internalType": "uint256",
          "name": "",
          "type": "uint256"
        }
      ],
      "stateMutability": "view",
      "type": "function"
    },
    {
      "inputs": [
        {
          "internalType": "uint256",
          "name": "_requestId",
          "type": "uint256"
        }
      ],
      "name": "getRequestStatus",
      "outputs": [
        {
          "internalType": "bool",
          "name": "fulfilled",
          "type": "bool"
        },
        {
          "internalType": "uint256[]",
          "name": "randomWords",
          "type": "uint256[]"
        }
      ],
      "stateMutability": "view",
      "type": "function"
    },
    {
      "inputs": [
        {
          "internalType": "uint256",
          "name": "_requestId",
          "type": "uint256"
        }
      ],
      "name": "getTextResponse",
      "outputs": [
        {
          "internalType": "string",
          "name": "",
          "type": "string"
        }
      ],
      "stateMutability": "view",
      "type": "function"
    },
    {
      "inputs": [],
      "name": "lastRequestId",
      "outputs": [
        {
          "internalType": "uint256",
          "name": "",
          "type": "uint256"
        }
      ],
      "stateMutability": "view",
      "type": "function"
    },
    {
      "inputs": [],
      "name": "owner",
      "outputs": [
        {
          "internalType": "address",
          "name": "",
          "type": "address"
        }
      ],
      "stateMutability": "view",
      "type": "function"
    },
    {
      "inputs": [
        {
          "internalType": "uint256",
          "name": "requestId",
          "type": "uint256"
        },
        {
          "internalType": "uint256[]",
          "name": "randomWords",
          "type": "uint256[]"
        }
      ],
      "name": "rawFulfillRandomWords",
      "outputs": [],
      "stateMutability": "nonpayable",
      "type": "function"
    },
    {
      "inputs": [
        {
          "internalType": "uint256",
          "name": "",
          "type": "uint256"
        }
      ],
      "name": "requestIdToAnswer",
      "outputs": [
        {
          "internalType": "string",
          "name": "",
          "type": "string"
        }
      ],
      "stateMutability": "view",
      "type": "function"
    },
    {
      "inputs": [
        {
          "internalType": "uint256",
          "name": "_requestId",
          "type": "uint256"
        }
      ],
      "name": "requestIdToTextResponse",
      "outputs": [
        {
          "internalType": "string",
          "name": "oracleResponse",
          "type": "string"
        }
      ],
      "stateMutability": "view",
      "type": "function"
    },
    {
      "inputs": [
        {
          "internalType": "uint256",
          "name": "",
          "type": "uint256"
        }
      ],
      "name": "requestIds",
      "outputs": [
        {
          "internalType": "uint256",
          "name": "",
          "type": "uint256"
        }
      ],
      "stateMutability": "view",
      "type": "function"
    },
    {
      "inputs": [],
      "name": "requestRandomWords",
      "outputs": [
        {
          "internalType": "uint256",
          "name": "requestId",
          "type": "uint256"
        }
      ],
      "stateMutability": "nonpayable",
      "type": "function"
    },
    {
      "inputs": [
        {
          "internalType": "uint256",
          "name": "",
          "type": "uint256"
        }
      ],
      "name": "s_requests",
      "outputs": [
        {
          "internalType": "bool",
          "name": "fulfilled",
          "type": "bool"
        },
        {
          "internalType": "bool",
          "name": "exists",
          "type": "bool"
        }
      ],
      "stateMutability": "view",
      "type": "function"
    },
    {
      "inputs": [
        {
          "internalType": "uint256",
          "name": "",
          "type": "uint256"
        }
      ],
      "name": "textResponses",
      "outputs": [
        {
          "internalType": "string",
          "name": "",
          "type": "string"
        }
      ],
      "stateMutability": "view",
      "type": "function"
    },
    {
      "inputs": [
        {
          "internalType": "address",
          "name": "to",
          "type": "address"
        }
      ],
      "name": "transferOwnership",
      "outputs": [],
      "stateMutability": "nonpayable",
      "type": "function"
    }
  ],
  "bytecode": "0x60a06040527f83d1b6e3388bed3d76426974512bb0d270e9542a765cd667242ea26c0cc0b73060001b600555622625a0600660006101000a81548163ffffffff021916908363ffffffff1602179055506003600660046101000a81548161ffff021916908361ffff16021790555060016006806101000a81548163ffffffff021916908363ffffffff1602179055506040518061028001604052806040518060400160405280600e81526020017f4974206973206365727461696e2e00000000000000000000000000000000000081525081526020016040518060400160405280600b81526020017f4162736f6c7574656c792e00000000000000000000000000000000000000000081525081526020016040518060400160405280601081526020017f576974686f7574206120646f7562742e0000000000000000000000000000000081525081526020016040518060400160405280601081526020017f5965732c20646566696e6974656c792e0000000000000000000000000000000081525081526020016040518060400160405280601481526020017f596f752063616e20636f756e74206f6e2069742e00000000000000000000000081525081526020016040518060400160405280601181526020017f41732049207365652069742c207965732e00000000000000000000000000000081525081526020016040518060400160405280600781526020017f537572656c792e0000000000000000000000000000000000000000000000000081525081526020016040518060400160405280601081526020017f4f75746c6f6f6b20697320676f6f642e0000000000000000000000000000000081525081526020016040518060400160405280600c81526020017f56657279206c696b656c792e000000000000000000000000000000000000000081525081526020016040518060400160405280600481526020017f5965732e0000000000000000000000000000000000000000000000000000000081525081526020016040518060400160405280601381526020017f43616e6e6f742070726564696374206e6f772e0000000000000000000000000081525081526020016040518060400160405280601381526020017f4f75746c6f6f6b20697320756e636c6561722e0000000000000000000000000081525081526020016040518060400160405280600881526020017f506572686170732e00000000000000000000000000000000000000000000000081525081526020016040518060400160405280601081526020017f41736b20616761696e206c617465722e0000000000000000000000000000000081525081526020016040518060400160405280600981526020017f446f75627466756c2e000000000000000000000000000000000000000000000081525081526020016040518060400160405280601281526020017f446f6e277420636f756e74206f6e2069742e000000000000000000000000000081525081526020016040518060400160405280601381526020017f4f75746c6f6f6b2069736e277420676f6f642e0000000000000000000000000081525081526020016040518060400160405280600581526020017f4e6f70652e00000000000000000000000000000000000000000000000000000081525081526020016040518060400160405280601181526020017f4920646f6e2774207468696e6b20736f2e00000000000000000000000000000081525081526020016040518060400160405280601281526020017f4d7920736f757263657320736179206e6f2e000000000000000000000000000081525081525060099060146200054692919062000878565b503480156200055457600080fd5b50604051620027b5380380620027b583398181016040528101906200057a919062000a47565b33806000736d80646beadd07ce68cab36c27c626790bbcf17f8073ffffffffffffffffffffffffffffffffffffffff1660808173ffffffffffffffffffffffffffffffffffffffff168152505050600073ffffffffffffffffffffffffffffffffffffffff168273ffffffffffffffffffffffffffffffffffffffff16036200063a576040517f08c379a0000000000000000000000000000000000000000000000000000000008152600401620006319062000ada565b60405180910390fd5b816000806101000a81548173ffffffffffffffffffffffffffffffffffffffff021916908373ffffffffffffffffffffffffffffffffffffffff160217905550600073ffffffffffffffffffffffffffffffffffffffff168173ffffffffffffffffffffffffffffffffffffffff1614620006c157620006c0816200074960201b60201c565b5b505050736d80646beadd07ce68cab36c27c626790bbcf17f600260006101000a81548173ffffffffffffffffffffffffffffffffffffffff021916908373ffffffffffffffffffffffffffffffffffffffff16021790555080600260146101000a81548167ffffffffffffffff021916908367ffffffffffffffff1602179055505062000bd2565b3373ffffffffffffffffffffffffffffffffffffffff168173ffffffffffffffffffffffffffffffffffffffff1603620007ba576040517f08c379a0000000000000000000000000000000000000000000000000000000008152600401620007b19062000b4c565b60405180910390fd5b80600160006101000a81548173ffffffffffffffffffffffffffffffffffffffff021916908373ffffffffffffffffffffffffffffffffffffffff1602179055508073ffffffffffffffffffffffffffffffffffffffff1660008054906101000a900473ffffffffffffffffffffffffffffffffffffffff1673ffffffffffffffffffffffffffffffffffffffff167fed8889f560326eb138920d842192f0eb3dd22b4f139c87a2c57538e05bae127860405160405180910390a350565b828054828255906000526020600020908101928215620008cc579160200282015b82811115620008cb578251829080519060200190620008ba929190620008df565b509160200191906001019062000899565b5b509050620008db919062000970565b5090565b828054620008ed9062000b9d565b90600052602060002090601f0160209004810192826200091157600085556200095d565b82601f106200092c57805160ff19168380011785556200095d565b828001600101855582156200095d579182015b828111156200095c5782518255916020019190600101906200093f565b5b5090506200096c919062000998565b5090565b5b808211156200099457600081816200098a9190620009b7565b5060010162000971565b5090565b5b80821115620009b357600081600090555060010162000999565b5090565b508054620009c59062000b9d565b6000825580601f10620009d95750620009fa565b601f016020900490600052602060002090810190620009f9919062000998565b5b50565b600080fd5b600067ffffffffffffffff82169050919050565b62000a218162000a02565b811462000a2d57600080fd5b50565b60008151905062000a418162000a16565b92915050565b60006020828403121562000a605762000a5f620009fd565b5b600062000a708482850162000a30565b91505092915050565b600082825260208201905092915050565b7f43616e6e6f7420736574206f776e657220746f207a65726f0000000000000000600082015250565b600062000ac260188362000a79565b915062000acf8262000a8a565b602082019050919050565b6000602082019050818103600083015262000af58162000ab3565b9050919050565b7f43616e6e6f74207472616e7366657220746f2073656c66000000000000000000600082015250565b600062000b3460178362000a79565b915062000b418262000afc565b602082019050919050565b6000602082019050818103600083015262000b678162000b25565b9050919050565b7f4e487b7100000000000000000000000000000000000000000000000000000000600052602260045260246000fd5b6000600282049050600182168062000bb657607f821691505b60208210810362000bcc5762000bcb62000b6e565b5b50919050565b608051611bc062000bf5600039600081816103b401526104080152611bc06000f3fe608060405234801561001057600080fd5b50600436106100ea5760003560e01c8063a168fa891161008c578063e2c423ca11610066578063e2c423ca14610273578063f2fde38b146102a3578063f35c8ac0146102bf578063fc2a88c3146102ef576100ea565b8063a168fa89146101f3578063d8a4676f14610224578063e0c8628914610255576100ea565b80638796ba8c116100c85780638796ba8c146101455780638da5cb5b1461017557806399e510c8146101935780639d5cc3a5146101c3576100ea565b8063043ad3bc146100ef5780631fe543e31461011f57806379ba50971461013b575b600080fd5b6101096004803603810190610104919061128a565b61030d565b6040516101169190611350565b60405180910390f35b610139600480360381019061013491906114ba565b6103b2565b005b610143610472565b005b61015f600480360381019061015a919061128a565b610607565b60405161016c9190611525565b60405180910390f35b61017d61062b565b60405161018a9190611581565b60405180910390f35b6101ad60048036038101906101a8919061128a565b610654565b6040516101ba9190611350565b60405180910390f35b6101dd60048036038101906101d8919061128a565b610849565b6040516101ea9190611350565b60405180910390f35b61020d6004803603810190610208919061128a565b6108e9565b60405161021b9291906115b7565b60405180910390f35b61023e6004803603810190610239919061128a565b610927565b60405161024c92919061169e565b60405180910390f35b61025d610a52565b60405161026a9190611525565b60405180910390f35b61028d6004803603810190610288919061128a565b610c56565b60405161029a9190611525565b60405180910390f35b6102bd60048036038101906102b891906116fa565b610da5565b005b6102d960048036038101906102d4919061128a565b610db9565b6040516102e69190611350565b60405180910390f35b6102f7610e65565b6040516103049190611525565b60405180910390f35b606060086000838152602001908152602001600020805461032d90611756565b80601f016020809104026020016040519081016040528092919081815260200182805461035990611756565b80156103a65780601f1061037b576101008083540402835291602001916103a6565b820191906000526020600020905b81548152906001019060200180831161038957829003601f168201915b50505050509050919050565b7f000000000000000000000000000000000000000000000000000000000000000073ffffffffffffffffffffffffffffffffffffffff163373ffffffffffffffffffffffffffffffffffffffff161461046457337f00000000000000000000000000000000000000000000000000000000000000006040517f1cf993f400000000000000000000000000000000000000000000000000000000815260040161045b929190611787565b60405180910390fd5b61046e8282610e6b565b5050565b600160009054906101000a900473ffffffffffffffffffffffffffffffffffffffff1673ffffffffffffffffffffffffffffffffffffffff163373ffffffffffffffffffffffffffffffffffffffff1614610502576040517f08c379a00000000000000000000000000000000000000000000000000000000081526004016104f9906117fc565b60405180910390fd5b60008060009054906101000a900473ffffffffffffffffffffffffffffffffffffffff169050336000806101000a81548173ffffffffffffffffffffffffffffffffffffffff021916908373ffffffffffffffffffffffffffffffffffffffff1602179055506000600160006101000a81548173ffffffffffffffffffffffffffffffffffffffff021916908373ffffffffffffffffffffffffffffffffffffffff1602179055503373ffffffffffffffffffffffffffffffffffffffff168173ffffffffffffffffffffffffffffffffffffffff167f8be0079c531659141344cd1fd0a4f28419497f9722a3daafe3b4186f6b6457e060405160405180910390a350565b6003818154811061061757600080fd5b906000526020600020016000915090505481565b60008060009054906101000a900473ffffffffffffffffffffffffffffffffffffffff16905090565b60606007600083815260200190815260200160002060000160009054906101000a900460ff166106b9576040517f08c379a00000000000000000000000000000000000000000000000000000000081526004016106b090611868565b60405180910390fd5b6000600760008481526020019081526020016000206040518060600160405290816000820160009054906101000a900460ff161515151581526020016000820160019054906101000a900460ff161515151581526020016001820180548060200260200160405190810160405280929190818152602001828054801561075e57602002820191906000526020600020905b81548152602001906001019080831161074a575b505050505081525050905060006014826040015160008151811061078557610784611888565b5b602002602001015161079791906118e6565b9050600981815481106107ad576107ac611888565b5b9060005260206000200180546107c290611756565b80601f01602080910402602001604051908101604052809291908181526020018280546107ee90611756565b801561083b5780601f106108105761010080835404028352916020019161083b565b820191906000526020600020905b81548152906001019060200180831161081e57829003601f168201915b505050505092505050919050565b6008602052806000526040600020600091509050805461086890611756565b80601f016020809104026020016040519081016040528092919081815260200182805461089490611756565b80156108e15780601f106108b6576101008083540402835291602001916108e1565b820191906000526020600020905b8154815290600101906020018083116108c457829003601f168201915b505050505081565b60076020528060005260406000206000915090508060000160009054906101000a900460ff16908060000160019054906101000a900460ff16905082565b600060606007600084815260200190815260200160002060000160019054906101000a900460ff1661098e576040517f08c379a000000000000000000000000000000000000000000000000000000000815260040161098590611963565b60405180910390fd5b6000600760008581526020019081526020016000206040518060600160405290816000820160009054906101000a900460ff161515151581526020016000820160019054906101000a900460ff1615151515815260200160018201805480602002602001604051908101604052809291908181526020018280548015610a3357602002820191906000526020600020905b815481526020019060010190808311610a1f575b5050505050815250509050806000015181604001519250925050915091565b6000600260009054906101000a900473ffffffffffffffffffffffffffffffffffffffff1673ffffffffffffffffffffffffffffffffffffffff16635d3b1d30600554600260149054906101000a900467ffffffffffffffff16600660049054906101000a900461ffff16600660009054906101000a900463ffffffff1660068054906101000a900463ffffffff166040518663ffffffff1660e01b8152600401610b019594939291906119fb565b6020604051808303816000875af1158015610b20573d6000803e3d6000fd5b505050506040513d601f19601f82011682018060405250810190610b449190611a63565b90506040518060600160405280600015158152602001600115158152602001600067ffffffffffffffff811115610b7e57610b7d611377565b5b604051908082528060200260200182016040528015610bac5781602001602082028036833780820191505090505b508152506007600083815260200190815260200160002060008201518160000160006101000a81548160ff02191690831515021790555060208201518160000160016101000a81548160ff0219169083151502179055506040820151816001019080519060200190610c1f929190611150565b5090505060038190806001815401808255809150506001900390600052602060002001600090919091909150558060048190555090565b60006007600083815260200190815260200160002060000160009054906101000a900460ff16610cbb576040517f08c379a0000000000000000000000000000000000000000000000000000000008152600401610cb290611868565b60405180910390fd5b6000600760008481526020019081526020016000206040518060600160405290816000820160009054906101000a900460ff161515151581526020016000820160019054906101000a900460ff1615151515815260200160018201805480602002602001604051908101604052809291908181526020018280548015610d6057602002820191906000526020600020905b815481526020019060010190808311610d4c575b5050505050815250509050600060148260400151600081518110610d8757610d86611888565b5b6020026020010151610d9991906118e6565b90508092505050919050565b610dad610f94565b610db681611024565b50565b60098181548110610dc957600080fd5b906000526020600020016000915090508054610de490611756565b80601f0160208091040260200160405190810160405280929190818152602001828054610e1090611756565b8015610e5d5780601f10610e3257610100808354040283529160200191610e5d565b820191906000526020600020905b815481529060010190602001808311610e4057829003601f168201915b505050505081565b60045481565b6007600083815260200190815260200160002060000160019054906101000a900460ff16610ece576040517f08c379a0000000000000000000000000000000000000000000000000000000008152600401610ec590611963565b60405180910390fd5b60016007600084815260200190815260200160002060000160006101000a81548160ff02191690831515021790555080600760008481526020019081526020016000206001019080519060200190610f27929190611150565b50610f3182610654565b600860008481526020019081526020016000209080519060200190610f5792919061119d565b50817ffe2e2d779dba245964d4e3ef9b994be63856fd568bf7d3ca9e224755cb1bd54d82604051610f889190611a90565b60405180910390a25050565b60008054906101000a900473ffffffffffffffffffffffffffffffffffffffff1673ffffffffffffffffffffffffffffffffffffffff163373ffffffffffffffffffffffffffffffffffffffff1614611022576040517f08c379a000000000000000000000000000000000000000000000000000000000815260040161101990611afe565b60405180910390fd5b565b3373ffffffffffffffffffffffffffffffffffffffff168173ffffffffffffffffffffffffffffffffffffffff1603611092576040517f08c379a000000000000000000000000000000000000000000000000000000000815260040161108990611b6a565b60405180910390fd5b80600160006101000a81548173ffffffffffffffffffffffffffffffffffffffff021916908373ffffffffffffffffffffffffffffffffffffffff1602179055508073ffffffffffffffffffffffffffffffffffffffff1660008054906101000a900473ffffffffffffffffffffffffffffffffffffffff1673ffffffffffffffffffffffffffffffffffffffff167fed8889f560326eb138920d842192f0eb3dd22b4f139c87a2c57538e05bae127860405160405180910390a350565b82805482825590600052602060002090810192821561118c579160200282015b8281111561118b578251825591602001919060010190611170565b5b5090506111999190611223565b5090565b8280546111a990611756565b90600052602060002090601f0160209004810192826111cb5760008555611212565b82601f106111e457805160ff1916838001178555611212565b82800160010185558215611212579182015b828111156112115782518255916020019190600101906111f6565b5b50905061121f9190611223565b5090565b5b8082111561123c576000816000905550600101611224565b5090565b6000604051905090565b600080fd5b600080fd5b6000819050919050565b61126781611254565b811461127257600080fd5b50565b6000813590506112848161125e565b92915050565b6000602082840312156112a05761129f61124a565b5b60006112ae84828501611275565b91505092915050565b600081519050919050565b600082825260208201905092915050565b60005b838110156112f15780820151818401526020810190506112d6565b83811115611300576000848401525b50505050565b6000601f19601f8301169050919050565b6000611322826112b7565b61132c81856112c2565b935061133c8185602086016112d3565b61134581611306565b840191505092915050565b6000602082019050818103600083015261136a8184611317565b905092915050565b600080fd5b7f4e487b7100000000000000000000000000000000000000000000000000000000600052604160045260246000fd5b6113af82611306565b810181811067ffffffffffffffff821117156113ce576113cd611377565b5b80604052505050565b60006113e1611240565b90506113ed82826113a6565b919050565b600067ffffffffffffffff82111561140d5761140c611377565b5b602082029050602081019050919050565b600080fd5b6000611436611431846113f2565b6113d7565b905080838252602082019050602084028301858111156114595761145861141e565b5b835b81811015611482578061146e8882611275565b84526020840193505060208101905061145b565b5050509392505050565b600082601f8301126114a1576114a0611372565b5b81356114b1848260208601611423565b91505092915050565b600080604083850312156114d1576114d061124a565b5b60006114df85828601611275565b925050602083013567ffffffffffffffff811115611500576114ff61124f565b5b61150c8582860161148c565b9150509250929050565b61151f81611254565b82525050565b600060208201905061153a6000830184611516565b92915050565b600073ffffffffffffffffffffffffffffffffffffffff82169050919050565b600061156b82611540565b9050919050565b61157b81611560565b82525050565b60006020820190506115966000830184611572565b92915050565b60008115159050919050565b6115b18161159c565b82525050565b60006040820190506115cc60008301856115a8565b6115d960208301846115a8565b9392505050565b600081519050919050565b600082825260208201905092915050565b6000819050602082019050919050565b61161581611254565b82525050565b6000611627838361160c565b60208301905092915050565b6000602082019050919050565b600061164b826115e0565b61165581856115eb565b9350611660836115fc565b8060005b83811015611691578151611678888261161b565b975061168383611633565b925050600181019050611664565b5085935050505092915050565b60006040820190506116b360008301856115a8565b81810360208301526116c58184611640565b90509392505050565b6116d781611560565b81146116e257600080fd5b50565b6000813590506116f4816116ce565b92915050565b6000602082840312156117105761170f61124a565b5b600061171e848285016116e5565b91505092915050565b7f4e487b7100000000000000000000000000000000000000000000000000000000600052602260045260246000fd5b6000600282049050600182168061176e57607f821691505b60208210810361178157611780611727565b5b50919050565b600060408201905061179c6000830185611572565b6117a96020830184611572565b9392505050565b7f4d7573742062652070726f706f736564206f776e657200000000000000000000600082015250565b60006117e66016836112c2565b91506117f1826117b0565b602082019050919050565b60006020820190508181036000830152611815816117d9565b9050919050565b7f72657175657374206e6f742066756c66696c6c65640000000000000000000000600082015250565b60006118526015836112c2565b915061185d8261181c565b602082019050919050565b6000602082019050818103600083015261188181611845565b9050919050565b7f4e487b7100000000000000000000000000000000000000000000000000000000600052603260045260246000fd5b7f4e487b7100000000000000000000000000000000000000000000000000000000600052601260045260246000fd5b60006118f182611254565b91506118fc83611254565b92508261190c5761190b6118b7565b5b828206905092915050565b7f72657175657374206e6f7420666f756e64000000000000000000000000000000600082015250565b600061194d6011836112c2565b915061195882611917565b602082019050919050565b6000602082019050818103600083015261197c81611940565b9050919050565b6000819050919050565b61199681611983565b82525050565b600067ffffffffffffffff82169050919050565b6119b98161199c565b82525050565b600061ffff82169050919050565b6119d6816119bf565b82525050565b600063ffffffff82169050919050565b6119f5816119dc565b82525050565b600060a082019050611a10600083018861198d565b611a1d60208301876119b0565b611a2a60408301866119cd565b611a3760608301856119ec565b611a4460808301846119ec565b9695505050505050565b600081519050611a5d8161125e565b92915050565b600060208284031215611a7957611a7861124a565b5b6000611a8784828501611a4e565b91505092915050565b60006020820190508181036000830152611aaa8184611640565b905092915050565b7f4f6e6c792063616c6c61626c65206279206f776e657200000000000000000000600082015250565b6000611ae86016836112c2565b9150611af382611ab2565b602082019050919050565b60006020820190508181036000830152611b1781611adb565b9050919050565b7f43616e6e6f74207472616e7366657220746f2073656c66000000000000000000600082015250565b6000611b546017836112c2565b9150611b5f82611b1e565b602082019050919050565b60006020820190508181036000830152611b8381611b47565b905091905056fea26469706673582212204873191fe831909e7da5a02cd41d1f955be1e31d6d8e7be6201d57dab99b77ef64736f6c634300080d0033",
  "linkReferences": {},
  "deployedLinkReferences": {}
}